{
  "_format": "hh-sol-artifact-1",
  "contractName": "BulkMintNFT",
  "sourceName": "contracts/BulkMint.sol",
  "abi": [
    {
      "inputs": [
        {
          "internalType": "string",
          "name": "_name",
          "type": "string"
        },
        {
          "internalType": "string",
          "name": "_symbol",
          "type": "string"
        },
        {
          "internalType": "uint256",
          "name": "_maxSupply",
          "type": "uint256"
        },
        {
          "internalType": "string",
          "name": "_baseURIs",
          "type": "string"
        },
        {
          "internalType": "string",
          "name": "_baseURISuffixs",
          "type": "string"
        },
        {
          "internalType": "uint96",
          "name": "_royality",
          "type": "uint96"
        }
      ],
      "stateMutability": "nonpayable",
      "type": "constructor"
    },
    {
      "inputs": [],
      "name": "ApprovalCallerNotOwnerNorApproved",
      "type": "error"
    },
    {
      "inputs": [],
      "name": "ApprovalQueryForNonexistentToken",
      "type": "error"
    },
    {
      "inputs": [],
      "name": "ApproveToCaller",
      "type": "error"
    },
    {
      "inputs": [],
      "name": "BalanceQueryForZeroAddress",
      "type": "error"
    },
    {
      "inputs": [],
      "name": "MintERC2309QuantityExceedsLimit",
      "type": "error"
    },
    {
      "inputs": [],
      "name": "MintToZeroAddress",
      "type": "error"
    },
    {
      "inputs": [],
      "name": "MintZeroQuantity",
      "type": "error"
    },
    {
      "inputs": [],
      "name": "OwnerQueryForNonexistentToken",
      "type": "error"
    },
    {
      "inputs": [],
      "name": "OwnershipNotInitializedForExtraData",
      "type": "error"
    },
    {
      "inputs": [],
      "name": "TransferCallerNotOwnerNorApproved",
      "type": "error"
    },
    {
      "inputs": [],
      "name": "TransferFromIncorrectOwner",
      "type": "error"
    },
    {
      "inputs": [],
      "name": "TransferToNonERC721ReceiverImplementer",
      "type": "error"
    },
    {
      "inputs": [],
      "name": "TransferToZeroAddress",
      "type": "error"
    },
    {
      "inputs": [],
      "name": "URIQueryForNonexistentToken",
      "type": "error"
    },
    {
      "anonymous": false,
      "inputs": [
        {
          "indexed": true,
          "internalType": "address",
          "name": "owner",
          "type": "address"
        },
        {
          "indexed": true,
          "internalType": "address",
          "name": "approved",
          "type": "address"
        },
        {
          "indexed": true,
          "internalType": "uint256",
          "name": "tokenId",
          "type": "uint256"
        }
      ],
      "name": "Approval",
      "type": "event"
    },
    {
      "anonymous": false,
      "inputs": [
        {
          "indexed": true,
          "internalType": "address",
          "name": "owner",
          "type": "address"
        },
        {
          "indexed": true,
          "internalType": "address",
          "name": "operator",
          "type": "address"
        },
        {
          "indexed": false,
          "internalType": "bool",
          "name": "approved",
          "type": "bool"
        }
      ],
      "name": "ApprovalForAll",
      "type": "event"
    },
    {
      "anonymous": false,
      "inputs": [
        {
          "indexed": true,
          "internalType": "uint256",
          "name": "fromTokenId",
          "type": "uint256"
        },
        {
          "indexed": false,
          "internalType": "uint256",
          "name": "toTokenId",
          "type": "uint256"
        },
        {
          "indexed": true,
          "internalType": "address",
          "name": "from",
          "type": "address"
        },
        {
          "indexed": true,
          "internalType": "address",
          "name": "to",
          "type": "address"
        }
      ],
      "name": "ConsecutiveTransfer",
      "type": "event"
    },
    {
      "anonymous": false,
      "inputs": [
        {
          "indexed": true,
          "internalType": "address",
          "name": "from",
          "type": "address"
        },
        {
          "indexed": true,
          "internalType": "address",
          "name": "to",
          "type": "address"
        },
        {
          "indexed": true,
          "internalType": "uint256",
          "name": "tokenId",
          "type": "uint256"
        }
      ],
      "name": "Transfer",
      "type": "event"
    },
    {
      "inputs": [
        {
          "internalType": "address",
          "name": "to",
          "type": "address"
        },
        {
          "internalType": "uint256",
          "name": "tokenId",
          "type": "uint256"
        }
      ],
      "name": "approve",
      "outputs": [],
      "stateMutability": "nonpayable",
      "type": "function"
    },
    {
      "inputs": [
        {
          "internalType": "address",
          "name": "owner",
          "type": "address"
        }
      ],
      "name": "balanceOf",
      "outputs": [
        {
          "internalType": "uint256",
          "name": "",
          "type": "uint256"
        }
      ],
      "stateMutability": "view",
      "type": "function"
    },
    {
      "inputs": [
        {
          "internalType": "uint256",
          "name": "tokenId",
          "type": "uint256"
        }
      ],
      "name": "getApproved",
      "outputs": [
        {
          "internalType": "address",
          "name": "",
          "type": "address"
        }
      ],
      "stateMutability": "view",
      "type": "function"
    },
    {
      "inputs": [
        {
          "internalType": "address",
          "name": "owner",
          "type": "address"
        },
        {
          "internalType": "address",
          "name": "operator",
          "type": "address"
        }
      ],
      "name": "isApprovedForAll",
      "outputs": [
        {
          "internalType": "bool",
          "name": "",
          "type": "bool"
        }
      ],
      "stateMutability": "view",
      "type": "function"
    },
    {
      "inputs": [],
      "name": "maxSupply",
      "outputs": [
        {
          "internalType": "uint256",
          "name": "",
          "type": "uint256"
        }
      ],
      "stateMutability": "view",
      "type": "function"
    },
    {
      "inputs": [
        {
          "internalType": "uint256",
          "name": "quantity",
          "type": "uint256"
        },
        {
          "internalType": "uint96",
          "name": "_royality",
          "type": "uint96"
        }
      ],
      "name": "mint",
      "outputs": [],
      "stateMutability": "payable",
      "type": "function"
    },
    {
      "inputs": [],
      "name": "name",
      "outputs": [
        {
          "internalType": "string",
          "name": "",
          "type": "string"
        }
      ],
      "stateMutability": "view",
      "type": "function"
    },
    {
      "inputs": [
        {
          "internalType": "uint256",
          "name": "tokenId",
          "type": "uint256"
        }
      ],
      "name": "ownerOf",
      "outputs": [
        {
          "internalType": "address",
          "name": "",
          "type": "address"
        }
      ],
      "stateMutability": "view",
      "type": "function"
    },
    {
      "inputs": [
        {
          "internalType": "uint256",
          "name": "_tokenId",
          "type": "uint256"
        },
        {
          "internalType": "uint256",
          "name": "_salePrice",
          "type": "uint256"
        }
      ],
      "name": "royaltyInfo",
      "outputs": [
        {
          "internalType": "address",
          "name": "",
          "type": "address"
        },
        {
          "internalType": "uint256",
          "name": "",
          "type": "uint256"
        }
      ],
      "stateMutability": "view",
      "type": "function"
    },
    {
      "inputs": [
        {
          "internalType": "address",
          "name": "from",
          "type": "address"
        },
        {
          "internalType": "address",
          "name": "to",
          "type": "address"
        },
        {
          "internalType": "uint256",
          "name": "tokenId",
          "type": "uint256"
        }
      ],
      "name": "safeTransferFrom",
      "outputs": [],
      "stateMutability": "nonpayable",
      "type": "function"
    },
    {
      "inputs": [
        {
          "internalType": "address",
          "name": "from",
          "type": "address"
        },
        {
          "internalType": "address",
          "name": "to",
          "type": "address"
        },
        {
          "internalType": "uint256",
          "name": "tokenId",
          "type": "uint256"
        },
        {
          "internalType": "bytes",
          "name": "_data",
          "type": "bytes"
        }
      ],
      "name": "safeTransferFrom",
      "outputs": [],
      "stateMutability": "nonpayable",
      "type": "function"
    },
    {
      "inputs": [
        {
          "internalType": "address",
          "name": "operator",
          "type": "address"
        },
        {
          "internalType": "bool",
          "name": "approved",
          "type": "bool"
        }
      ],
      "name": "setApprovalForAll",
      "outputs": [],
      "stateMutability": "nonpayable",
      "type": "function"
    },
    {
      "inputs": [
        {
          "internalType": "bytes4",
          "name": "interfaceId",
          "type": "bytes4"
        }
      ],
      "name": "supportsInterface",
      "outputs": [
        {
          "internalType": "bool",
          "name": "",
          "type": "bool"
        }
      ],
      "stateMutability": "view",
      "type": "function"
    },
    {
      "inputs": [],
      "name": "symbol",
      "outputs": [
        {
          "internalType": "string",
          "name": "",
          "type": "string"
        }
      ],
      "stateMutability": "view",
      "type": "function"
    },
    {
      "inputs": [
        {
          "internalType": "uint256",
          "name": "tokenId",
          "type": "uint256"
        }
      ],
      "name": "tokenURI",
      "outputs": [
        {
          "internalType": "string",
          "name": "",
          "type": "string"
        }
      ],
      "stateMutability": "view",
      "type": "function"
    },
    {
      "inputs": [],
      "name": "totalSupply",
      "outputs": [
        {
          "internalType": "uint256",
          "name": "",
          "type": "uint256"
        }
      ],
      "stateMutability": "view",
      "type": "function"
    },
    {
      "inputs": [
        {
          "internalType": "address",
          "name": "from",
          "type": "address"
        },
        {
          "internalType": "address",
          "name": "to",
          "type": "address"
        },
        {
          "internalType": "uint256",
          "name": "tokenId",
          "type": "uint256"
        }
      ],
      "name": "transferFrom",
      "outputs": [],
      "stateMutability": "nonpayable",
      "type": "function"
    }
  ],
  "bytecode": "0x60806040523480156200001157600080fd5b50604051620013803803806200138083398101604081905262000034916200023d565b8551869086906200004d906002906020850190620000c7565b50805162000063906003906020840190620000c7565b50600080555050600a84905582516200008490600b906020860190620000c7565b5081516200009a90600c906020850190620000c7565b50600d80546001600160601b0319166001600160601b0392909216919091179055506200035f9350505050565b828054620000d5906200030c565b90600052602060002090601f016020900481019282620000f9576000855562000144565b82601f106200011457805160ff191683800117855562000144565b8280016001018555821562000144579182015b828111156200014457825182559160200191906001019062000127565b506200015292915062000156565b5090565b5b8082111562000152576000815560010162000157565b600082601f8301126200017e578081fd5b81516001600160401b03808211156200019b576200019b62000349565b604051601f8301601f19908116603f01168101908282118183101715620001c657620001c662000349565b81604052838152602092508683858801011115620001e2578485fd5b8491505b83821015620002055785820183015181830184015290820190620001e6565b838211156200021657848385830101525b9695505050505050565b80516001600160601b03811681146200023857600080fd5b919050565b60008060008060008060c0878903121562000256578182fd5b86516001600160401b03808211156200026d578384fd5b6200027b8a838b016200016d565b9750602089015191508082111562000291578384fd5b6200029f8a838b016200016d565b9650604089015195506060890151915080821115620002bc578384fd5b620002ca8a838b016200016d565b94506080890151915080821115620002e0578384fd5b50620002ef89828a016200016d565b9250506200030060a0880162000220565b90509295509295509295565b600181811c908216806200032157607f821691505b602082108114156200034357634e487b7160e01b600052602260045260246000fd5b50919050565b634e487b7160e01b600052604160045260246000fd5b611011806200036f6000396000f3fe6080604052600436106100fe5760003560e01c806342842e0e11610095578063a22cb46511610064578063a22cb465146102be578063b88d4fde146102de578063c87b56dd146102fe578063d5abeb011461031e578063e985e9c51461033457600080fd5b806342842e0e146102495780636352211e1461026957806370a082311461028957806395d89b41146102a957600080fd5b806318160ddd116100d157806318160ddd146101b457806323b872dd146101d75780632a55205a146101f75780633e20fa861461023657600080fd5b806301ffc9a71461010357806306fdde0314610138578063081812fc1461015a578063095ea7b314610192575b600080fd5b34801561010f57600080fd5b5061012361011e366004610d8d565b61037d565b60405190151581526020015b60405180910390f35b34801561014457600080fd5b5061014d61038e565b60405161012f9190610ec5565b34801561016657600080fd5b5061017a610175366004610dc5565b610420565b6040516001600160a01b03909116815260200161012f565b34801561019e57600080fd5b506101b26101ad366004610d64565b610464565b005b3480156101c057600080fd5b50600154600054035b60405190815260200161012f565b3480156101e357600080fd5b506101b26101f2366004610c1a565b610504565b34801561020357600080fd5b50610217610212366004610ddd565b610695565b604080516001600160a01b03909316835260208301919091520161012f565b6101b2610244366004610dfe565b610741565b34801561025557600080fd5b506101b2610264366004610c1a565b6107b2565b34801561027557600080fd5b5061017a610284366004610dc5565b6107d2565b34801561029557600080fd5b506101c96102a4366004610bce565b6107dd565b3480156102b557600080fd5b5061014d61082c565b3480156102ca57600080fd5b506101b26102d9366004610d2a565b61083b565b3480156102ea57600080fd5b506101b26102f9366004610c55565b6108d1565b34801561030a57600080fd5b5061014d610319366004610dc5565b61091b565b34801561032a57600080fd5b506101c9600a5481565b34801561034057600080fd5b5061012361034f366004610be8565b6001600160a01b03918216600090815260076020908152604080832093909416825291909152205460ff1690565b6000610388826109a0565b92915050565b60606002805461039d90610f5b565b80601f01602080910402602001604051908101604052809291908181526020018280546103c990610f5b565b80156104165780601f106103eb57610100808354040283529160200191610416565b820191906000526020600020905b8154815290600101906020018083116103f957829003601f168201915b5050505050905090565b600061042b826109d5565b610448576040516333d1c03960e21b815260040160405180910390fd5b506000908152600660205260409020546001600160a01b031690565b600061046f826107d2565b9050336001600160a01b038216146104a85761048b813361034f565b6104a8576040516367d9dca160e11b815260040160405180910390fd5b60008281526006602052604080822080546001600160a01b0319166001600160a01b0387811691821790925591518593918516917f8c5be1e5ebec7d5bd14f71427d1e84f3dd0314c0f7b2291e5b200ac8c7c3b92591a4505050565b600061050f826109fc565b9050836001600160a01b0316816001600160a01b0316146105425760405162a1148160e81b815260040160405180910390fd5b60008281526006602052604090208054338082146001600160a01b0388169091141761058f57610572863361034f565b61058f57604051632ce44b5f60e11b815260040160405180910390fd5b6001600160a01b0385166105b657604051633a954ecd60e21b815260040160405180910390fd5b80156105c157600082555b6001600160a01b038681166000908152600560205260408082208054600019019055918716808252919020805460010190554260a01b17600160e11b17600085815260046020526040902055600160e11b831661064c576001840160008181526004602052604090205461064a57600054811461064a5760008181526004602052604090208490555b505b83856001600160a01b0316876001600160a01b03167fddf252ad1be2c89b69c2b068fc378daa952ba7f163c4a11628f55a4df523b3ef60405160405180910390a4505050505050565b60008281526009602090815260408083208151808301909252546001600160a01b038116808352600160a01b9091046001600160601b031692820192909252829161070a5750604080518082019091526008546001600160a01b0381168252600160a01b90046001600160601b031660208201525b602081015160009061271090610729906001600160601b031687610f10565b6107339190610ef0565b915196919550909350505050565b600a54826107526001546000540390565b61075c9190610ed8565b11156107ae5760405162461bcd60e51b815260206004820152601960248201527f4d617820737570706c792073686f756c64206265206c65737300000000000000604482015260640160405180910390fd5b5050565b6107cd838383604051806020016040528060008152506108d1565b505050565b6000610388826109fc565b60006001600160a01b038216610806576040516323d3ad8160e21b815260040160405180910390fd5b506001600160a01b031660009081526005602052604090205467ffffffffffffffff1690565b60606003805461039d90610f5b565b6001600160a01b0382163314156108655760405163b06307db60e01b815260040160405180910390fd5b3360008181526007602090815260408083206001600160a01b03871680855290835292819020805460ff191686151590811790915590519081529192917f17307eab39ab6107e8899845ad3d59bd9653f200f220920489ca2b5937696c31910160405180910390a35050565b6108dc848484610504565b6001600160a01b0383163b15610915576108f884848484610a5d565b610915576040516368d2bf6b60e11b815260040160405180910390fd5b50505050565b6060610926826109d5565b61094357604051630a14c4b560e41b815260040160405180910390fd5b600061094d610b54565b905080516000141561096e5760405180602001604052806000815250610999565b8061097884610b63565b604051602001610989929190610e59565b6040516020818303038152906040525b9392505050565b60006001600160e01b0319821663152a902d60e11b148061038857506301ffc9a760e01b6001600160e01b0319831614610388565b6000805482108015610388575050600090815260046020526040902054600160e01b161590565b600081600054811015610a4457600081815260046020526040902054600160e01b8116610a42575b80610999575060001901600081815260046020526040902054610a24565b505b604051636f96cda160e11b815260040160405180910390fd5b604051630a85bd0160e11b81526000906001600160a01b0385169063150b7a0290610a92903390899088908890600401610e88565b602060405180830381600087803b158015610aac57600080fd5b505af1925050508015610adc575060408051601f3d908101601f19168201909252610ad991810190610da9565b60015b610b37573d808015610b0a576040519150601f19603f3d011682016040523d82523d6000602084013e610b0f565b606091505b508051610b2f576040516368d2bf6b60e11b815260040160405180910390fd5b805181602001fd5b6001600160e01b031916630a85bd0160e11b149050949350505050565b6060600b805461039d90610f5b565b604080516080810191829052607f0190826030600a8206018353600a90045b8015610ba057600183039250600a81066030018353600a9004610b82565b50819003601f19909101908152919050565b80356001600160a01b0381168114610bc957600080fd5b919050565b600060208284031215610bdf578081fd5b61099982610bb2565b60008060408385031215610bfa578081fd5b610c0383610bb2565b9150610c1160208401610bb2565b90509250929050565b600080600060608486031215610c2e578081fd5b610c3784610bb2565b9250610c4560208501610bb2565b9150604084013590509250925092565b60008060008060808587031215610c6a578081fd5b610c7385610bb2565b9350610c8160208601610bb2565b925060408501359150606085013567ffffffffffffffff80821115610ca4578283fd5b818701915087601f830112610cb7578283fd5b813581811115610cc957610cc9610fac565b604051601f8201601f19908116603f01168101908382118183101715610cf157610cf1610fac565b816040528281528a6020848701011115610d09578586fd5b82602086016020830137918201602001949094529598949750929550505050565b60008060408385031215610d3c578182fd5b610d4583610bb2565b915060208301358015158114610d59578182fd5b809150509250929050565b60008060408385031215610d76578182fd5b610d7f83610bb2565b946020939093013593505050565b600060208284031215610d9e578081fd5b813561099981610fc2565b600060208284031215610dba578081fd5b815161099981610fc2565b600060208284031215610dd6578081fd5b5035919050565b60008060408385031215610def578182fd5b50508035926020909101359150565b60008060408385031215610e10578182fd5b8235915060208301356001600160601b0381168114610d59578182fd5b60008151808452610e45816020860160208601610f2f565b601f01601f19169290920160200192915050565b60008351610e6b818460208801610f2f565b835190830190610e7f818360208801610f2f565b01949350505050565b6001600160a01b0385811682528416602082015260408101839052608060608201819052600090610ebb90830184610e2d565b9695505050505050565b6020815260006109996020830184610e2d565b60008219821115610eeb57610eeb610f96565b500190565b600082610f0b57634e487b7160e01b81526012600452602481fd5b500490565b6000816000190483118215151615610f2a57610f2a610f96565b500290565b60005b83811015610f4a578181015183820152602001610f32565b838111156109155750506000910152565b600181811c90821680610f6f57607f821691505b60208210811415610f9057634e487b7160e01b600052602260045260246000fd5b50919050565b634e487b7160e01b600052601160045260246000fd5b634e487b7160e01b600052604160045260246000fd5b6001600160e01b031981168114610fd857600080fd5b5056fea26469706673582212209e8b1cc3844ea5a10bc95ecb2f546f8b23d8ecc3246435afcc5cb391c4ef2e3364736f6c63430008040033",
  "linkReferences": {},
  "deployedLinkReferences": {}
}