{
  "_format": "hh-sol-artifact-1",
  "contractName": "MarketPlace",
  "sourceName": "contracts/MarketPlace.sol",
  "abi": [
    {
      "anonymous": false,
      "inputs": [
        {
          "indexed": false,
          "internalType": "uint8",
          "name": "version",
          "type": "uint8"
        }
      ],
      "name": "Initialized",
      "type": "event"
    },
    {
      "anonymous": false,
      "inputs": [
        {
          "indexed": true,
          "internalType": "address",
          "name": "previousOwner",
          "type": "address"
        },
        {
          "indexed": true,
          "internalType": "address",
          "name": "newOwner",
          "type": "address"
        }
      ],
      "name": "OwnershipTransferred",
      "type": "event"
    },
    {
      "anonymous": false,
      "inputs": [
        {
          "indexed": false,
          "internalType": "uint256",
          "name": "nonce",
          "type": "uint256"
        },
        {
          "indexed": false,
          "internalType": "address",
          "name": "seller",
          "type": "address"
        },
        {
          "indexed": false,
          "internalType": "uint256",
          "name": "tokenId",
          "type": "uint256"
        },
        {
          "indexed": false,
          "internalType": "address",
          "name": "assetAddress",
          "type": "address"
        },
        {
          "indexed": false,
          "internalType": "uint256",
          "name": "amount",
          "type": "uint256"
        }
      ],
      "name": "flatSale",
      "type": "event"
    },
    {
      "anonymous": false,
      "inputs": [
        {
          "indexed": false,
          "internalType": "uint256",
          "name": "tokenId",
          "type": "uint256"
        },
        {
          "indexed": false,
          "internalType": "address",
          "name": "assetAddress",
          "type": "address"
        },
        {
          "indexed": false,
          "internalType": "uint256",
          "name": "startTime",
          "type": "uint256"
        },
        {
          "indexed": false,
          "internalType": "uint256",
          "name": "amount",
          "type": "uint256"
        },
        {
          "indexed": false,
          "internalType": "address",
          "name": "winner",
          "type": "address"
        },
        {
          "indexed": false,
          "internalType": "address",
          "name": "seller",
          "type": "address"
        },
        {
          "indexed": false,
          "internalType": "uint256",
          "name": "endTime",
          "type": "uint256"
        }
      ],
      "name": "lazy_Auction",
      "type": "event"
    },
    {
      "stateMutability": "payable",
      "type": "fallback"
    },
    {
      "inputs": [],
      "name": "decimalPrecision",
      "outputs": [
        {
          "internalType": "uint256",
          "name": "",
          "type": "uint256"
        }
      ],
      "stateMutability": "view",
      "type": "function"
    },
    {
      "inputs": [
        {
          "internalType": "bytes32",
          "name": "hash",
          "type": "bytes32"
        },
        {
          "internalType": "bytes",
          "name": "_signature",
          "type": "bytes"
        }
      ],
      "name": "getSigner",
      "outputs": [
        {
          "internalType": "address",
          "name": "",
          "type": "address"
        }
      ],
      "stateMutability": "pure",
      "type": "function"
    },
    {
      "inputs": [],
      "name": "initialize",
      "outputs": [],
      "stateMutability": "nonpayable",
      "type": "function"
    },
    {
      "inputs": [
        {
          "internalType": "uint256",
          "name": "",
          "type": "uint256"
        }
      ],
      "name": "isNonceProcessed",
      "outputs": [
        {
          "internalType": "bool",
          "name": "",
          "type": "bool"
        }
      ],
      "stateMutability": "view",
      "type": "function"
    },
    {
      "inputs": [
        {
          "components": [
            {
              "internalType": "uint256",
              "name": "nonce",
              "type": "uint256"
            },
            {
              "internalType": "address",
              "name": "seller",
              "type": "address"
            },
            {
              "internalType": "address",
              "name": "assetAddress",
              "type": "address"
            },
            {
              "internalType": "address",
              "name": "paymentAssetAddress",
              "type": "address"
            },
            {
              "internalType": "uint256",
              "name": "tokenId",
              "type": "uint256"
            },
            {
              "internalType": "uint96",
              "name": "royality",
              "type": "uint96"
            },
            {
              "internalType": "uint256",
              "name": "amount",
              "type": "uint256"
            },
            {
              "internalType": "bytes",
              "name": "seller_signature",
              "type": "bytes"
            },
            {
              "internalType": "string",
              "name": "tokenUri",
              "type": "string"
            },
            {
              "internalType": "uint256",
              "name": "startTime",
              "type": "uint256"
            },
            {
              "internalType": "uint256",
              "name": "endTime",
              "type": "uint256"
            }
          ],
          "internalType": "struct MarketPlace.SellerDetails",
          "name": "sellerDetails",
          "type": "tuple"
        },
        {
          "components": [
            {
              "internalType": "address",
              "name": "winnerAddress",
              "type": "address"
            },
            {
              "internalType": "uint256",
              "name": "amount",
              "type": "uint256"
            },
            {
              "internalType": "bytes",
              "name": "winnerSignature",
              "type": "bytes"
            },
            {
              "internalType": "uint256",
              "name": "bidTime",
              "type": "uint256"
            },
            {
              "internalType": "uint256",
              "name": "nonce",
              "type": "uint256"
            }
          ],
          "internalType": "struct MarketPlace.WinnerDetails",
          "name": "winnerDetails",
          "type": "tuple"
        }
      ],
      "name": "lazyAuction",
      "outputs": [],
      "stateMutability": "nonpayable",
      "type": "function"
    },
    {
      "inputs": [
        {
          "components": [
            {
              "internalType": "uint256",
              "name": "nonce",
              "type": "uint256"
            },
            {
              "internalType": "address",
              "name": "seller",
              "type": "address"
            },
            {
              "internalType": "address",
              "name": "assetAddress",
              "type": "address"
            },
            {
              "internalType": "address",
              "name": "paymentAssetAddress",
              "type": "address"
            },
            {
              "internalType": "uint256",
              "name": "tokenId",
              "type": "uint256"
            },
            {
              "internalType": "uint96",
              "name": "royality",
              "type": "uint96"
            },
            {
              "internalType": "uint256",
              "name": "amount",
              "type": "uint256"
            },
            {
              "internalType": "bytes",
              "name": "seller_signature",
              "type": "bytes"
            },
            {
              "internalType": "string",
              "name": "tokenUri",
              "type": "string"
            },
            {
              "internalType": "uint256",
              "name": "startTime",
              "type": "uint256"
            },
            {
              "internalType": "uint256",
              "name": "endTime",
              "type": "uint256"
            }
          ],
          "internalType": "struct MarketPlace.SellerDetails",
          "name": "sellerDetails",
          "type": "tuple"
        }
      ],
      "name": "lazyBuy",
      "outputs": [],
      "stateMutability": "nonpayable",
      "type": "function"
    },
    {
      "inputs": [],
      "name": "owner",
      "outputs": [
        {
          "internalType": "address",
          "name": "",
          "type": "address"
        }
      ],
      "stateMutability": "view",
      "type": "function"
    },
    {
      "inputs": [],
      "name": "platFormFeePercent",
      "outputs": [
        {
          "internalType": "uint256",
          "name": "",
          "type": "uint256"
        }
      ],
      "stateMutability": "view",
      "type": "function"
    },
    {
      "inputs": [],
      "name": "renounceOwnership",
      "outputs": [],
      "stateMutability": "nonpayable",
      "type": "function"
    },
    {
      "inputs": [
        {
          "internalType": "uint256",
          "name": "_newPlatFormFeePercent",
          "type": "uint256"
        }
      ],
      "name": "setPlatFormFeePercent",
      "outputs": [],
      "stateMutability": "nonpayable",
      "type": "function"
    },
    {
      "inputs": [
        {
          "internalType": "address",
          "name": "newOwner",
          "type": "address"
        }
      ],
      "name": "transferOwnership",
      "outputs": [],
      "stateMutability": "nonpayable",
      "type": "function"
    },
    {
      "inputs": [
        {
          "components": [
            {
              "internalType": "uint256",
              "name": "nonce",
              "type": "uint256"
            },
            {
              "internalType": "address",
              "name": "seller",
              "type": "address"
            },
            {
              "internalType": "address",
              "name": "assetAddress",
              "type": "address"
            },
            {
              "internalType": "address",
              "name": "paymentAssetAddress",
              "type": "address"
            },
            {
              "internalType": "uint256",
              "name": "tokenId",
              "type": "uint256"
            },
            {
              "internalType": "uint96",
              "name": "royality",
              "type": "uint96"
            },
            {
              "internalType": "uint256",
              "name": "amount",
              "type": "uint256"
            },
            {
              "internalType": "bytes",
              "name": "seller_signature",
              "type": "bytes"
            },
            {
              "internalType": "string",
              "name": "tokenUri",
              "type": "string"
            },
            {
              "internalType": "uint256",
              "name": "startTime",
              "type": "uint256"
            },
            {
              "internalType": "uint256",
              "name": "endTime",
              "type": "uint256"
            }
          ],
          "internalType": "struct MarketPlace.SellerDetails",
          "name": "sellerDetails",
          "type": "tuple"
        }
      ],
      "name": "verifySellerSign",
      "outputs": [
        {
          "internalType": "address",
          "name": "",
          "type": "address"
        }
      ],
      "stateMutability": "pure",
      "type": "function"
    },
    {
      "inputs": [
        {
          "components": [
            {
              "internalType": "address",
              "name": "winnerAddress",
              "type": "address"
            },
            {
              "internalType": "uint256",
              "name": "amount",
              "type": "uint256"
            },
            {
              "internalType": "bytes",
              "name": "winnerSignature",
              "type": "bytes"
            },
            {
              "internalType": "uint256",
              "name": "bidTime",
              "type": "uint256"
            },
            {
              "internalType": "uint256",
              "name": "nonce",
              "type": "uint256"
            }
          ],
          "internalType": "struct MarketPlace.WinnerDetails",
          "name": "winnerDetails",
          "type": "tuple"
        }
      ],
      "name": "verifyWinnerSign",
      "outputs": [
        {
          "internalType": "address",
          "name": "",
          "type": "address"
        }
      ],
      "stateMutability": "pure",
      "type": "function"
    },
    {
      "stateMutability": "payable",
      "type": "receive"
    }
  ],
  "bytecode": "0x608060405234801561001057600080fd5b50611b93806100206000396000f3fe6080604052600436106100bd5760003560e01c80638439807c11610079578063c4efa66511610056578063c4efa6651461020b578063d0b684b614610220578063f2fde38b14610240578063f7b2ec0d1461026057005b80638439807c146101995780638da5cb5b146101b9578063b4ffc2bf146101eb57005b806302525e1b146100c65780633bc0ca8c146100e65780636b3f4b3f14610106578063715018a61461014b5780638129fc1c14610160578063815a1e4e1461017557005b366100c457005b005b3480156100d257600080fd5b506100c46100e1366004611764565b610280565b3480156100f257600080fd5b506100c4610101366004611729565b610999565b34801561011257600080fd5b506101366101213660046117f8565b60666020526000908152604090205460ff1681565b60405190151581526020015b60405180910390f35b34801561015757600080fd5b506100c46110b8565b34801561016c57600080fd5b506100c46110cc565b34801561018157600080fd5b5061018b60655481565b604051908152602001610142565b3480156101a557600080fd5b506100c46101b43660046117f8565b606555565b3480156101c557600080fd5b506033546001600160a01b03165b6040516001600160a01b039091168152602001610142565b3480156101f757600080fd5b506101d36102063660046117c5565b6111e2565b34801561021757600080fd5b5061018b606481565b34801561022c57600080fd5b506101d361023b366004611729565b61129d565b34801561024c57600080fd5b506100c461025b36600461162c565b61131b565b34801561026c57600080fd5b506101d361027b366004611673565b611391565b813560009081526066602052604090205460ff16156102ba5760405162461bcd60e51b81526004016102b190611910565b60405180910390fd5b60006102c58361129d565b90506001600160a01b0381166102e1604085016020860161162c565b6001600160a01b0316146103075760405162461bcd60e51b81526004016102b190611952565b6000610312836111e2565b90506001600160a01b03811661032b602085018561162c565b6001600160a01b0316146103965760405162461bcd60e51b815260206004820152602c60248201527f4d61726b6574506c6163653a2077696e6e6572207369676e207665726966696360448201526b185d1a5bdb8819985a5b195960a21b60648201526084016102b1565b60006103a8606086016040870161162c565b90506001600160a01b03811663e985e9c56103c9604088016020890161162c565b6040516001600160e01b031960e084901b1681526001600160a01b03909116600482015230602482015260440160206040518083038186803b15801561040e57600080fd5b505afa158015610422573d6000803e3d6000fd5b505050506040513d601f19601f820116820180604052508101906104469190611653565b6104925760405162461bcd60e51b815260206004820181905260248201527f4d61726b6574506c6163653a2061646472657373206e6f7420617070726f766560448201526064016102b1565b60808501358061054d576001600160a01b038216637b17b7a86104bb6040890160208a0161162c565b6104c96101008a018a611ac5565b6104d960c08c0160a08d01611828565b6040518563ffffffff1660e01b81526004016104f894939291906118be565b602060405180830381600087803b15801561051257600080fd5b505af1158015610526573d6000803e3d6000fd5b505050506040513d601f19601f8201168201806040525081019061054a9190611810565b90505b6001600160a01b0382166323b872dd61056c6040890160208a0161162c565b610579602089018961162c565b846040518463ffffffff1660e01b81526004016105989392919061189a565b600060405180830381600087803b1580156105b257600080fd5b505af11580156105c6573d6000803e3d6000fd5b50600092506105de915050608088016060890161162c565b9050602086018035906001600160a01b038316906370a0823190610602908a61162c565b6040516001600160e01b031960e084901b1681526001600160a01b03909116600482015260240160206040518083038186803b15801561064157600080fd5b505afa158015610655573d6000803e3d6000fd5b505050506040513d601f19601f820116820180604052508101906106799190611810565b10156106c75760405162461bcd60e51b815260206004820152601c60248201527f4d61726b6574506c6163653a20496e7375666963656e742066756e640000000060448201526064016102b1565b604051636eb1769f60e11b815233600482015230602482015260c0880135906001600160a01b0383169063dd62ed3e9060440160206040518083038186803b15801561071257600080fd5b505afa158015610726573d6000803e3d6000fd5b505050506040513d601f19601f8201168201806040525081019061074a9190611810565b10156107685760405162461bcd60e51b81526004016102b19061199e565b600061078561271061077f60208a013560c8611451565b9061145d565b90506001600160a01b0382166323b872dd6107a360208a018a61162c565b30846040518463ffffffff1660e01b81526004016107c39392919061189a565b602060405180830381600087803b1580156107dd57600080fd5b505af11580156107f1573d6000803e3d6000fd5b505050506040513d601f19601f820116820180604052508101906108159190611653565b506000610826602089013583611469565b90506001600160a01b0383166323b872dd61084460208b018b61162c565b61085460408d0160208e0161162c565b846040518463ffffffff1660e01b81526004016108739392919061189a565b602060405180830381600087803b15801561088d57600080fd5b505af11580156108a1573d6000803e3d6000fd5b505050506040513d601f19601f820116820180604052508101906108c59190611653565b50883560009081526066602052604090819020805460ff191660011790557f4e67c2704ec2173fb91323a1006869aa42271a7ced14d459515377c3bdd9d0449060808b01359061091b9060608d01908d0161162c565b6101208c013560c08d013561093360208e018e61162c565b8e6020016020810190610946919061162c565b604080519687526001600160a01b0395861660208801528601939093526060850191909152821660808401521660a08201526101408b013560c082015260e00160405180910390a1505050505050505050565b803560009081526066602052604090205460ff16156109ca5760405162461bcd60e51b81526004016102b190611910565b60006109d58261129d565b90506001600160a01b0381166109f1604084016020850161162c565b6001600160a01b031614610a175760405162461bcd60e51b81526004016102b190611952565b6000610a29606084016040850161162c565b9050608083013515610b67576001600160a01b03811663e985e9c5610a54604086016020870161162c565b6040516001600160e01b031960e084901b1681526001600160a01b03909116600482015230602482015260440160206040518083038186803b158015610a9957600080fd5b505afa158015610aad573d6000803e3d6000fd5b505050506040513d601f19601f82011682018060405250810190610ad19190611653565b610aed5760405162461bcd60e51b81526004016102b190611a30565b6001600160a01b0381166323b872dd610b0c604086016020870161162c565b3386608001356040518463ffffffff1660e01b8152600401610b309392919061189a565b600060405180830381600087803b158015610b4a57600080fd5b505af1158015610b5e573d6000803e3d6000fd5b50505050610d44565b60006001600160a01b038216637b17b7a8610b88604087016020880161162c565b610b96610100880188611ac5565b610ba660c08a0160a08b01611828565b6040518563ffffffff1660e01b8152600401610bc594939291906118be565b602060405180830381600087803b158015610bdf57600080fd5b505af1158015610bf3573d6000803e3d6000fd5b505050506040513d601f19601f82011682018060405250810190610c179190611810565b90506001600160a01b03821663e985e9c5610c38604087016020880161162c565b6040516001600160e01b031960e084901b1681526001600160a01b03909116600482015230602482015260440160206040518083038186803b158015610c7d57600080fd5b505afa158015610c91573d6000803e3d6000fd5b505050506040513d601f19601f82011682018060405250810190610cb59190611653565b610cd15760405162461bcd60e51b81526004016102b190611a30565b6001600160a01b0382166323b872dd610cf0604087016020880161162c565b33846040518463ffffffff1660e01b8152600401610d109392919061189a565b600060405180830381600087803b158015610d2a57600080fd5b505af1158015610d3e573d6000803e3d6000fd5b50505050505b6000610d56608085016060860161162c565b6040516370a0823160e01b81523360048201529091506001600160a01b038216906370a082319060240160206040518083038186803b158015610d9857600080fd5b505afa158015610dac573d6000803e3d6000fd5b505050506040513d601f19601f82011682018060405250810190610dd09190611810565b8460c001351115610e235760405162461bcd60e51b815260206004820181905260248201527f4d61726b6574506c6163653a20496e73756666696369656e7420416d6f756e7460448201526064016102b1565b604051636eb1769f60e11b815233600482015230602482015260c0850135906001600160a01b0383169063dd62ed3e9060440160206040518083038186803b158015610e6e57600080fd5b505afa158015610e82573d6000803e3d6000fd5b505050506040513d601f19601f82011682018060405250810190610ea69190611810565b1015610ec45760405162461bcd60e51b81526004016102b19061199e565b6000610ed1606480611afb565b606554610ee29060c0880135611afb565b610eec9190611adb565b6040516323b872dd60e01b81529091506001600160a01b038316906323b872dd90610f1f9033903090869060040161189a565b602060405180830381600087803b158015610f3957600080fd5b505af1158015610f4d573d6000803e3d6000fd5b505050506040513d601f19601f82011682018060405250810190610f719190611653565b506000610f828260c0880135611b1a565b90506001600160a01b0383166323b872dd33610fa460408a0160208b0161162c565b846040518463ffffffff1660e01b8152600401610fc39392919061189a565b602060405180830381600087803b158015610fdd57600080fd5b505af1158015610ff1573d6000803e3d6000fd5b505050506040513d601f19601f820116820180604052508101906110159190611653565b507ffc33285593fc5c0d96b65ca0d19a4b3b01fde47af702c7c3f40b8ac378963b0186356110496040890160208a0161162c565b608089013561105e60608b0160408c0161162c565b604080519485526001600160a01b03938416602086015284019190915216606082015260c0880135608082015260a00160405180910390a150505091356000908152606660205260409020805460ff191660011790555050565b6110c0611475565b6110ca60006114cf565b565b600054610100900460ff16158080156110ec5750600054600160ff909116105b806111065750303b158015611106575060005460ff166001145b6111695760405162461bcd60e51b815260206004820152602e60248201527f496e697469616c697a61626c653a20636f6e747261637420697320616c72656160448201526d191e481a5b9a5d1a585b1a5e995960921b60648201526084016102b1565b6000805460ff19166001179055801561118c576000805461ff0019166101001790555b611194611521565b60fa60655580156111df576000805461ff0019169055604051600181527f7f26b83ff96e1f2b6a682f133852f6798a09c465da95921460cefb38474024989060200160405180910390a15b50565b6000806111f2602084018461162c565b6040516bffffffffffffffffffffffff19606092831b166020828101919091528501356034820152908401356054820152608084013560748201526094016040516020818303038152906040528051906020012090506112968184806040019061125c9190611a79565b8080601f01602080910402602001604051908101604052809392919081815260200183838082843760009201919091525061139192505050565b9392505050565b6000806112b0606084016040850161162c565b60808401356112c3610100860186611ac5565b6112d3608088016060890161162c565b6040516112f095949392919060c08a0135908a359060200161184f565b60408051601f19818403018152919052805160209091012090506112968161125c60e0860186611a79565b611323611475565b6001600160a01b0381166113885760405162461bcd60e51b815260206004820152602660248201527f4f776e61626c653a206e6577206f776e657220697320746865207a65726f206160448201526564647265737360d01b60648201526084016102b1565b6111df816114cf565b6000806000806113a085611550565b6040517f19457468657265756d205369676e6564204d6573736167653a0a3332000000006020820152603c81018a90529295509093509150600190605c0160408051601f198184030181528282528051602091820120600084529083018083525260ff841690820152606081018590526080810184905260a0016020604051602081039080840390855afa15801561143c573d6000803e3d6000fd5b5050604051601f190151979650505050505050565b60006112968284611afb565b60006112968284611adb565b60006112968284611b1a565b6033546001600160a01b031633146110ca5760405162461bcd60e51b815260206004820181905260248201527f4f776e61626c653a2063616c6c6572206973206e6f7420746865206f776e657260448201526064016102b1565b603380546001600160a01b038381166001600160a01b0319831681179093556040519116919082907f8be0079c531659141344cd1fd0a4f28419497f9722a3daafe3b4186f6b6457e090600090a35050565b600054610100900460ff166115485760405162461bcd60e51b81526004016102b1906119e5565b6110ca6115d3565b600080600083516041146115b55760405162461bcd60e51b815260206004820152602660248201527f4d61726b6574506c6163653a20696e76616c6964207369676e6174757265206c60448201526532b733ba341760d11b60648201526084016102b1565b50505060208101516040820151606090920151909260009190911a90565b600054610100900460ff166115fa5760405162461bcd60e51b81526004016102b1906119e5565b6110ca336114cf565b60006101608284031215611615578081fd5b50919050565b600060a08284031215611615578081fd5b60006020828403121561163d578081fd5b81356001600160a01b0381168114611296578182fd5b600060208284031215611664578081fd5b81518015158114611296578182fd5b60008060408385031215611685578081fd5b82359150602083013567ffffffffffffffff808211156116a3578283fd5b818501915085601f8301126116b6578283fd5b8135818111156116c8576116c8611b47565b604051601f8201601f19908116603f011681019083821181831017156116f0576116f0611b47565b81604052828152886020848701011115611708578586fd5b82602086016020830137856020848301015280955050505050509250929050565b60006020828403121561173a578081fd5b813567ffffffffffffffff811115611750578182fd5b61175c84828501611603565b949350505050565b60008060408385031215611776578182fd5b823567ffffffffffffffff8082111561178d578384fd5b61179986838701611603565b935060208501359150808211156117ae578283fd5b506117bb8582860161161b565b9150509250929050565b6000602082840312156117d6578081fd5b813567ffffffffffffffff8111156117ec578182fd5b61175c8482850161161b565b600060208284031215611809578081fd5b5035919050565b600060208284031215611821578081fd5b5051919050565b600060208284031215611839578081fd5b81356001600160601b0381168114611296578182fd5b60006001600160601b0319808a60601b1683528860148401528688603485013760609590951b9094169401603481019490945260488401919091526068830152506088019392505050565b6001600160a01b039384168152919092166020820152604081019190915260600190565b6001600160a01b0385168152606060208201819052810183905282846080830137600080608085840101526080601f19601f86011683010190506001600160601b038316604083015295945050505050565b60208082526022908201527f4d61726b6574506c6163653a206e6f6e636520616c72656164792070726f6365604082015261737360f01b606082015260800190565b6020808252602c908201527f4d61726b6574506c6163653a2073656c6c6572207369676e207665726966696360408201526b185d1a5bdb8819985a5b195960a21b606082015260800190565b60208082526027908201527f4d61726b6574506c6163653a20436865636b2074686520746f6b656e20616c6c60408201526637bbb0b731b29760c91b606082015260800190565b6020808252602b908201527f496e697469616c697a61626c653a20636f6e7472616374206973206e6f74206960408201526a6e697469616c697a696e6760a81b606082015260800190565b60208082526029908201527f4d61726b6574506c6163653a20436f6c6c656374696f6e206d7573742062652060408201526830b8383937bb32b21760b91b606082015260800190565b6000808335601e19843603018112611a8f578283fd5b83018035915067ffffffffffffffff821115611aa9578283fd5b602001915036819003821315611abe57600080fd5b9250929050565b6000808335601e19843603018112611a8f578182fd5b600082611af657634e487b7160e01b81526012600452602481fd5b500490565b6000816000190483118215151615611b1557611b15611b31565b500290565b600082821015611b2c57611b2c611b31565b500390565b634e487b7160e01b600052601160045260246000fd5b634e487b7160e01b600052604160045260246000fdfea2646970667358221220fe2aa70e47951cc5e7060507f38269fad9d986092c2f313b664db395e0c2696664736f6c63430008040033",
  "linkReferences": {},
  "deployedLinkReferences": {}
}