{
  "_format": "hh-sol-artifact-1",
  "contractName": "ERC721Token",
  "sourceName": "contracts/ERC721Token.sol",
  "abi": [
    {
      "anonymous": false,
      "inputs": [
        {
          "indexed": true,
          "internalType": "address",
          "name": "owner",
          "type": "address"
        },
        {
          "indexed": true,
          "internalType": "address",
          "name": "approved",
          "type": "address"
        },
        {
          "indexed": true,
          "internalType": "uint256",
          "name": "tokenId",
          "type": "uint256"
        }
      ],
      "name": "Approval",
      "type": "event"
    },
    {
      "anonymous": false,
      "inputs": [
        {
          "indexed": true,
          "internalType": "address",
          "name": "owner",
          "type": "address"
        },
        {
          "indexed": true,
          "internalType": "address",
          "name": "operator",
          "type": "address"
        },
        {
          "indexed": false,
          "internalType": "bool",
          "name": "approved",
          "type": "bool"
        }
      ],
      "name": "ApprovalForAll",
      "type": "event"
    },
    {
      "anonymous": false,
      "inputs": [
        {
          "indexed": false,
          "internalType": "uint8",
          "name": "version",
          "type": "uint8"
        }
      ],
      "name": "Initialized",
      "type": "event"
    },
    {
      "anonymous": false,
      "inputs": [
        {
          "indexed": true,
          "internalType": "address",
          "name": "previousOwner",
          "type": "address"
        },
        {
          "indexed": true,
          "internalType": "address",
          "name": "newOwner",
          "type": "address"
        }
      ],
      "name": "OwnershipTransferred",
      "type": "event"
    },
    {
      "anonymous": false,
      "inputs": [
        {
          "indexed": false,
          "internalType": "address",
          "name": "account",
          "type": "address"
        }
      ],
      "name": "Paused",
      "type": "event"
    },
    {
      "anonymous": false,
      "inputs": [
        {
          "indexed": true,
          "internalType": "address",
          "name": "from",
          "type": "address"
        },
        {
          "indexed": true,
          "internalType": "address",
          "name": "to",
          "type": "address"
        },
        {
          "indexed": true,
          "internalType": "uint256",
          "name": "tokenId",
          "type": "uint256"
        }
      ],
      "name": "Transfer",
      "type": "event"
    },
    {
      "anonymous": false,
      "inputs": [
        {
          "indexed": false,
          "internalType": "address",
          "name": "account",
          "type": "address"
        }
      ],
      "name": "Unpaused",
      "type": "event"
    },
    {
      "inputs": [
        {
          "internalType": "address",
          "name": "to",
          "type": "address"
        },
        {
          "internalType": "uint256",
          "name": "tokenId",
          "type": "uint256"
        }
      ],
      "name": "approve",
      "outputs": [],
      "stateMutability": "nonpayable",
      "type": "function"
    },
    {
      "inputs": [
        {
          "internalType": "address",
          "name": "owner",
          "type": "address"
        }
      ],
      "name": "balanceOf",
      "outputs": [
        {
          "internalType": "uint256",
          "name": "",
          "type": "uint256"
        }
      ],
      "stateMutability": "view",
      "type": "function"
    },
    {
      "inputs": [
        {
          "internalType": "uint256",
          "name": "tokenId",
          "type": "uint256"
        }
      ],
      "name": "burn",
      "outputs": [],
      "stateMutability": "nonpayable",
      "type": "function"
    },
    {
      "inputs": [
        {
          "internalType": "uint256",
          "name": "tokenId",
          "type": "uint256"
        }
      ],
      "name": "getApproved",
      "outputs": [
        {
          "internalType": "address",
          "name": "",
          "type": "address"
        }
      ],
      "stateMutability": "view",
      "type": "function"
    },
    {
      "inputs": [
        {
          "internalType": "uint96",
          "name": "_maxRoyality",
          "type": "uint96"
        }
      ],
      "name": "initialize",
      "outputs": [],
      "stateMutability": "nonpayable",
      "type": "function"
    },
    {
      "inputs": [
        {
          "internalType": "address",
          "name": "owner",
          "type": "address"
        },
        {
          "internalType": "address",
          "name": "operator",
          "type": "address"
        }
      ],
      "name": "isApprovedForAll",
      "outputs": [
        {
          "internalType": "bool",
          "name": "",
          "type": "bool"
        }
      ],
      "stateMutability": "view",
      "type": "function"
    },
    {
      "inputs": [],
      "name": "maximumRoyality",
      "outputs": [
        {
          "internalType": "uint96",
          "name": "",
          "type": "uint96"
        }
      ],
      "stateMutability": "view",
      "type": "function"
    },
    {
      "inputs": [
        {
          "internalType": "address",
          "name": "to",
          "type": "address"
        },
        {
          "internalType": "string",
          "name": "tokenURI",
          "type": "string"
        },
        {
          "internalType": "uint96",
          "name": "_royality",
          "type": "uint96"
        }
      ],
      "name": "mint",
      "outputs": [
        {
          "internalType": "uint256",
          "name": "",
          "type": "uint256"
        }
      ],
      "stateMutability": "nonpayable",
      "type": "function"
    },
    {
      "inputs": [],
      "name": "name",
      "outputs": [
        {
          "internalType": "string",
          "name": "",
          "type": "string"
        }
      ],
      "stateMutability": "view",
      "type": "function"
    },
    {
      "inputs": [],
      "name": "owner",
      "outputs": [
        {
          "internalType": "address",
          "name": "",
          "type": "address"
        }
      ],
      "stateMutability": "view",
      "type": "function"
    },
    {
      "inputs": [
        {
          "internalType": "uint256",
          "name": "tokenId",
          "type": "uint256"
        }
      ],
      "name": "ownerOf",
      "outputs": [
        {
          "internalType": "address",
          "name": "",
          "type": "address"
        }
      ],
      "stateMutability": "view",
      "type": "function"
    },
    {
      "inputs": [],
      "name": "paused",
      "outputs": [
        {
          "internalType": "bool",
          "name": "",
          "type": "bool"
        }
      ],
      "stateMutability": "view",
      "type": "function"
    },
    {
      "inputs": [],
      "name": "renounceOwnership",
      "outputs": [],
      "stateMutability": "nonpayable",
      "type": "function"
    },
    {
      "inputs": [
        {
          "internalType": "uint256",
          "name": "_tokenId",
          "type": "uint256"
        },
        {
          "internalType": "uint256",
          "name": "_salePrice",
          "type": "uint256"
        }
      ],
      "name": "royaltyInfo",
      "outputs": [
        {
          "internalType": "address",
          "name": "",
          "type": "address"
        },
        {
          "internalType": "uint256",
          "name": "",
          "type": "uint256"
        }
      ],
      "stateMutability": "view",
      "type": "function"
    },
    {
      "inputs": [
        {
          "internalType": "address",
          "name": "from",
          "type": "address"
        },
        {
          "internalType": "address",
          "name": "to",
          "type": "address"
        },
        {
          "internalType": "uint256",
          "name": "tokenId",
          "type": "uint256"
        }
      ],
      "name": "safeTransferFrom",
      "outputs": [],
      "stateMutability": "nonpayable",
      "type": "function"
    },
    {
      "inputs": [
        {
          "internalType": "address",
          "name": "from",
          "type": "address"
        },
        {
          "internalType": "address",
          "name": "to",
          "type": "address"
        },
        {
          "internalType": "uint256",
          "name": "tokenId",
          "type": "uint256"
        },
        {
          "internalType": "bytes",
          "name": "data",
          "type": "bytes"
        }
      ],
      "name": "safeTransferFrom",
      "outputs": [],
      "stateMutability": "nonpayable",
      "type": "function"
    },
    {
      "inputs": [
        {
          "internalType": "address",
          "name": "operator",
          "type": "address"
        },
        {
          "internalType": "bool",
          "name": "approved",
          "type": "bool"
        }
      ],
      "name": "setApprovalForAll",
      "outputs": [],
      "stateMutability": "nonpayable",
      "type": "function"
    },
    {
      "inputs": [
        {
          "internalType": "uint96",
          "name": "_value",
          "type": "uint96"
        }
      ],
      "name": "setMaximumRoyality",
      "outputs": [],
      "stateMutability": "nonpayable",
      "type": "function"
    },
    {
      "inputs": [
        {
          "internalType": "bytes4",
          "name": "interfaceId",
          "type": "bytes4"
        }
      ],
      "name": "supportsInterface",
      "outputs": [
        {
          "internalType": "bool",
          "name": "",
          "type": "bool"
        }
      ],
      "stateMutability": "view",
      "type": "function"
    },
    {
      "inputs": [],
      "name": "symbol",
      "outputs": [
        {
          "internalType": "string",
          "name": "",
          "type": "string"
        }
      ],
      "stateMutability": "view",
      "type": "function"
    },
    {
      "inputs": [
        {
          "internalType": "uint256",
          "name": "index",
          "type": "uint256"
        }
      ],
      "name": "tokenByIndex",
      "outputs": [
        {
          "internalType": "uint256",
          "name": "",
          "type": "uint256"
        }
      ],
      "stateMutability": "view",
      "type": "function"
    },
    {
      "inputs": [
        {
          "internalType": "address",
          "name": "owner",
          "type": "address"
        },
        {
          "internalType": "uint256",
          "name": "index",
          "type": "uint256"
        }
      ],
      "name": "tokenOfOwnerByIndex",
      "outputs": [
        {
          "internalType": "uint256",
          "name": "",
          "type": "uint256"
        }
      ],
      "stateMutability": "view",
      "type": "function"
    },
    {
      "inputs": [
        {
          "internalType": "uint256",
          "name": "tokenId",
          "type": "uint256"
        }
      ],
      "name": "tokenURI",
      "outputs": [
        {
          "internalType": "string",
          "name": "",
          "type": "string"
        }
      ],
      "stateMutability": "view",
      "type": "function"
    },
    {
      "inputs": [],
      "name": "totalSupply",
      "outputs": [
        {
          "internalType": "uint256",
          "name": "",
          "type": "uint256"
        }
      ],
      "stateMutability": "view",
      "type": "function"
    },
    {
      "inputs": [
        {
          "internalType": "address",
          "name": "from",
          "type": "address"
        },
        {
          "internalType": "address",
          "name": "to",
          "type": "address"
        },
        {
          "internalType": "uint256",
          "name": "tokenId",
          "type": "uint256"
        }
      ],
      "name": "transferFrom",
      "outputs": [],
      "stateMutability": "nonpayable",
      "type": "function"
    },
    {
      "inputs": [
        {
          "internalType": "address",
          "name": "newOwner",
          "type": "address"
        }
      ],
      "name": "transferOwnership",
      "outputs": [],
      "stateMutability": "nonpayable",
      "type": "function"
    }
  ],
  "bytecode": "0x608060405234801561001057600080fd5b50612542806100206000396000f3fe608060405234801561001057600080fd5b506004361061018e5760003560e01c806370a08231116100de578063a22cb46511610097578063d98a17ed11610071578063d98a17ed14610366578063e985e9c514610392578063ec1d2ff9146103ce578063f2fde38b146103e157600080fd5b8063a22cb4651461032d578063b88d4fde14610340578063c87b56dd1461035357600080fd5b806370a08231146102d3578063715018a6146102e65780637b17b7a8146102ee5780638da5cb5b14610301578063909f1cad1461031257806395d89b411461032557600080fd5b80632a55205a1161014b57806342966c681161012557806342966c681461028e5780634f6ccce7146102a15780635c975abb146102b45780636352211e146102c057600080fd5b80632a55205a146102365780632f745c591461026857806342842e0e1461027b57600080fd5b806301ffc9a71461019357806306fdde03146101bb578063081812fc146101d0578063095ea7b3146101fb57806318160ddd1461021057806323b872dd14610223575b600080fd5b6101a66101a136600461219b565b6103f4565b60405190151581526020015b60405180910390f35b6101c3610405565b6040516101b291906122be565b6101e36101de3660046121d3565b610497565b6040516001600160a01b0390911681526020016101b2565b61020e610209366004612172565b6104be565b005b610161545b6040519081526020016101b2565b61020e610231366004612015565b6105d9565b6102496102443660046121eb565b61060b565b604080516001600160a01b0390931683526020830191909152016101b2565b610215610276366004612172565b6106b7565b61020e610289366004612015565b61074e565b61020e61029c3660046121d3565b610769565b6102156102af3660046121d3565b61079a565b6101915460ff166101a6565b6101e36102ce3660046121d3565b61083d565b6102156102e1366004611fc9565b61089d565b61020e610923565b6102156102fc366004612103565b610937565b60c9546001600160a01b03166101e3565b61020e61032036600461220c565b610a4c565b6101c3610bfe565b61020e61033b3660046120c9565b610c0d565b61020e61034e366004612050565b610c18565b6101c36103613660046121d3565b610c50565b6102285461037a906001600160601b031681565b6040516001600160601b0390911681526020016101b2565b6101a66103a0366004611fe3565b6001600160a01b039182166000908152609c6020908152604080832093909416825291909152205460ff1690565b61020e6103dc36600461220c565b610c5b565b61020e6103ef366004611fc9565b610c8b565b60006103ff82610d01565b92915050565b6060609780546104149061244a565b80601f01602080910402602001604051908101604052809291908181526020018280546104409061244a565b801561048d5780601f106104625761010080835404028352916020019161048d565b820191906000526020600020905b81548152906001019060200180831161047057829003601f168201915b5050505050905090565b60006104a282610d0c565b506000908152609b60205260409020546001600160a01b031690565b60006104c98261083d565b9050806001600160a01b0316836001600160a01b0316141561053c5760405162461bcd60e51b815260206004820152602160248201527f4552433732313a20617070726f76616c20746f2063757272656e74206f776e656044820152603960f91b60648201526084015b60405180910390fd5b336001600160a01b0382161480610558575061055881336103a0565b6105ca5760405162461bcd60e51b815260206004820152603e60248201527f4552433732313a20617070726f76652063616c6c6572206973206e6f7420746f60448201527f6b656e206f776e6572206e6f7220617070726f76656420666f7220616c6c00006064820152608401610533565b6105d48383610d6b565b505050565b6105e4335b82610dd9565b6106005760405162461bcd60e51b81526004016105339061236e565b6105d4838383610e57565b60008281526066602090815260408083208151808301909252546001600160a01b038116808352600160a01b9091046001600160601b03169282019290925282916106805750604080518082019091526065546001600160a01b0381168252600160a01b90046001600160601b031660208201525b60208101516000906127109061069f906001600160601b0316876123e8565b6106a991906123d4565b915196919550909350505050565b60006106c28361089d565b82106107245760405162461bcd60e51b815260206004820152602b60248201527f455243373231456e756d657261626c653a206f776e657220696e646578206f7560448201526a74206f6620626f756e647360a81b6064820152608401610533565b506001600160a01b0391909116600090815261015f60209081526040808320938352929052205490565b6105d483838360405180602001604052806000815250610c18565b610772336105de565b61078e5760405162461bcd60e51b81526004016105339061236e565b61079781610ffe565b50565b60006107a66101615490565b82106108095760405162461bcd60e51b815260206004820152602c60248201527f455243373231456e756d657261626c653a20676c6f62616c20696e646578206f60448201526b7574206f6620626f756e647360a01b6064820152608401610533565b610161828154811061082b57634e487b7160e01b600052603260045260246000fd5b90600052602060002001549050919050565b6000818152609960205260408120546001600160a01b0316806103ff5760405162461bcd60e51b8152602060048201526018602482015277115490cdcc8c4e881a5b9d985b1a59081d1bdad95b88125160421b6044820152606401610533565b60006001600160a01b0382166109075760405162461bcd60e51b815260206004820152602960248201527f4552433732313a2061646472657373207a65726f206973206e6f7420612076616044820152683634b21037bbb732b960b91b6064820152608401610533565b506001600160a01b03166000908152609a602052604090205490565b61092b611007565b6109356000611061565b565b610228546000906001600160601b0390811690831611156109a65760405162461bcd60e51b8152602060048201526024808201527f455243373231546f6b656e3a20526f79616c6974792073686f756c64206265206044820152636c65737360e01b6064820152608401610533565b6001600160a01b038416610a085760405162461bcd60e51b8152602060048201526024808201527f455243373231546f6b656e3a20746f20616464726573732063616e27742062656044820152630203078360e41b6064820152608401610533565b6000610a146102275490565b9050610a2085826110b3565b610a2a8185611201565b610a3581868561129b565b610a4461022780546001019055565b949350505050565b600054610100900460ff1615808015610a6c5750600054600160ff909116105b80610a865750303b158015610a86575060005460ff166001145b610ae95760405162461bcd60e51b815260206004820152602e60248201527f496e697469616c697a61626c653a20636f6e747261637420697320616c72656160448201526d191e481a5b9a5d1a585b1a5e995960921b6064820152608401610533565b6000805460ff191660011790558015610b0c576000805461ff0019166101001790555b610b546040518060400160405280600b81526020016a4d61726b6574506c61636560a81b8152506040518060400160405280600381526020016204d4b560ec1b8152506113a9565b610b5c6113da565b610b646113da565b610b6c611401565b610b746113da565b610b7c6113da565b610b84611430565b610b9361022780546001019055565b61022880546bffffffffffffffffffffffff19166001600160601b0384161790558015610bfa576000805461ff0019169055604051600181527f7f26b83ff96e1f2b6a682f133852f6798a09c465da95921460cefb38474024989060200160405180910390a15b5050565b6060609880546104149061244a565b610bfa33838361145f565b610c223383610dd9565b610c3e5760405162461bcd60e51b81526004016105339061236e565b610c4a8484848461152e565b50505050565b60606103ff82611561565b610c63611007565b61022880546bffffffffffffffffffffffff19166001600160601b0392909216919091179055565b610c93611007565b6001600160a01b038116610cf85760405162461bcd60e51b815260206004820152602660248201527f4f776e61626c653a206e6577206f776e657220697320746865207a65726f206160448201526564647265737360d01b6064820152608401610533565b61079781611061565b60006103ff8261166a565b6000818152609960205260409020546001600160a01b03166107975760405162461bcd60e51b8152602060048201526018602482015277115490cdcc8c4e881a5b9d985b1a59081d1bdad95b88125160421b6044820152606401610533565b6000818152609b6020526040902080546001600160a01b0319166001600160a01b0384169081179091558190610da08261083d565b6001600160a01b03167f8c5be1e5ebec7d5bd14f71427d1e84f3dd0314c0f7b2291e5b200ac8c7c3b92560405160405180910390a45050565b600080610de58361083d565b9050806001600160a01b0316846001600160a01b03161480610e2c57506001600160a01b038082166000908152609c602090815260408083209388168352929052205460ff165b80610a445750836001600160a01b0316610e4584610497565b6001600160a01b031614949350505050565b826001600160a01b0316610e6a8261083d565b6001600160a01b031614610ece5760405162461bcd60e51b815260206004820152602560248201527f4552433732313a207472616e736665722066726f6d20696e636f72726563742060448201526437bbb732b960d91b6064820152608401610533565b6001600160a01b038216610f305760405162461bcd60e51b8152602060048201526024808201527f4552433732313a207472616e7366657220746f20746865207a65726f206164646044820152637265737360e01b6064820152608401610533565b610f3b83838361168f565b610f46600082610d6b565b6001600160a01b0383166000908152609a60205260408120805460019290610f6f908490612407565b90915550506001600160a01b0382166000908152609a60205260408120805460019290610f9d9084906123bc565b909155505060008181526099602052604080822080546001600160a01b0319166001600160a01b0386811691821790925591518493918716917fddf252ad1be2c89b69c2b068fc378daa952ba7f163c4a11628f55a4df523b3ef91a4505050565b6107978161169a565b60c9546001600160a01b031633146109355760405162461bcd60e51b815260206004820181905260248201527f4f776e61626c653a2063616c6c6572206973206e6f7420746865206f776e65726044820152606401610533565b60c980546001600160a01b038381166001600160a01b0319831681179093556040519116919082907f8be0079c531659141344cd1fd0a4f28419497f9722a3daafe3b4186f6b6457e090600090a35050565b6001600160a01b0382166111095760405162461bcd60e51b815260206004820181905260248201527f4552433732313a206d696e7420746f20746865207a65726f20616464726573736044820152606401610533565b6000818152609960205260409020546001600160a01b03161561116e5760405162461bcd60e51b815260206004820152601c60248201527f4552433732313a20746f6b656e20616c7265616479206d696e746564000000006044820152606401610533565b61117a6000838361168f565b6001600160a01b0382166000908152609a602052604081208054600192906111a39084906123bc565b909155505060008181526099602052604080822080546001600160a01b0319166001600160a01b03861690811790915590518392907fddf252ad1be2c89b69c2b068fc378daa952ba7f163c4a11628f55a4df523b3ef908290a45050565b6000828152609960205260409020546001600160a01b031661127c5760405162461bcd60e51b815260206004820152602e60248201527f45524337323155524953746f726167653a2055524920736574206f66206e6f6e60448201526d32bc34b9ba32b73a103a37b5b2b760911b6064820152608401610533565b600082815260fb6020908152604090912082516105d492840190611e51565b6127106001600160601b03821611156113095760405162461bcd60e51b815260206004820152602a60248201527f455243323938313a20726f79616c7479206665652077696c6c206578636565646044820152692073616c65507269636560b01b6064820152608401610533565b6001600160a01b03821661135f5760405162461bcd60e51b815260206004820152601b60248201527f455243323938313a20496e76616c696420706172616d657465727300000000006044820152606401610533565b6040805180820182526001600160a01b0393841681526001600160601b0392831660208083019182526000968752606690529190942093519051909116600160a01b029116179055565b600054610100900460ff166113d05760405162461bcd60e51b815260040161053390612323565b610bfa82826116b4565b600054610100900460ff166109355760405162461bcd60e51b815260040161053390612323565b600054610100900460ff166114285760405162461bcd60e51b815260040161053390612323565b610935611702565b600054610100900460ff166114575760405162461bcd60e51b815260040161053390612323565b610935611736565b816001600160a01b0316836001600160a01b031614156114c15760405162461bcd60e51b815260206004820152601960248201527f4552433732313a20617070726f766520746f2063616c6c6572000000000000006044820152606401610533565b6001600160a01b038381166000818152609c6020908152604080832094871680845294825291829020805460ff191686151590811790915591519182527f17307eab39ab6107e8899845ad3d59bd9653f200f220920489ca2b5937696c31910160405180910390a3505050565b611539848484610e57565b61154584848484611766565b610c4a5760405162461bcd60e51b8152600401610533906122d1565b606061156c82610d0c565b600082815260fb6020526040812080546115859061244a565b80601f01602080910402602001604051908101604052809291908181526020018280546115b19061244a565b80156115fe5780601f106115d3576101008083540402835291602001916115fe565b820191906000526020600020905b8154815290600101906020018083116115e157829003601f168201915b50505050509050600061161c60408051602081019091526000815290565b905080516000141561162f575092915050565b815115611661578082604051602001611649929190612252565b60405160208183030381529060405292505050919050565b610a4484611873565b60006001600160e01b0319821663780e9d6360e01b14806103ff57506103ff826118e7565b6105d4838383611927565b6116a38161199a565b600090815260666020526040812055565b600054610100900460ff166116db5760405162461bcd60e51b815260040161053390612323565b81516116ee906097906020850190611e51565b5080516105d4906098906020840190611e51565b600054610100900460ff166117295760405162461bcd60e51b815260040161053390612323565b610191805460ff19169055565b600054610100900460ff1661175d5760405162461bcd60e51b815260040161053390612323565b61093533611061565b60006001600160a01b0384163b1561186857604051630a85bd0160e11b81526001600160a01b0385169063150b7a02906117aa903390899088908890600401612281565b602060405180830381600087803b1580156117c457600080fd5b505af19250505080156117f4575060408051601f3d908101601f191682019092526117f1918101906121b7565b60015b61184e573d808015611822576040519150601f19603f3d011682016040523d82523d6000602084013e611827565b606091505b5080516118465760405162461bcd60e51b8152600401610533906122d1565b805181602001fd5b6001600160e01b031916630a85bd0160e11b149050610a44565b506001949350505050565b606061187e82610d0c565b600061189560408051602081019091526000815290565b905060008151116118b557604051806020016040528060008152506118e0565b806118bf846119da565b6040516020016118d0929190612252565b6040516020818303038152906040525b9392505050565b60006001600160e01b031982166380ac58cd60e01b148061191857506001600160e01b03198216635b5e139f60e01b145b806103ff57506103ff82611af4565b611932838383611b29565b6101915460ff16156105d45760405162461bcd60e51b815260206004820152602b60248201527f4552433732315061757361626c653a20746f6b656e207472616e73666572207760448201526a1a1a5b19481c185d5cd95960aa1b6064820152608401610533565b6119a381611be3565b600081815260fb6020526040902080546119bc9061244a565b15905061079757600081815260fb6020526040812061079791611ed5565b6060816119fe5750506040805180820190915260018152600360fc1b602082015290565b8160005b8115611a285780611a1281612485565b9150611a219050600a836123d4565b9150611a02565b60008167ffffffffffffffff811115611a5157634e487b7160e01b600052604160045260246000fd5b6040519080825280601f01601f191660200182016040528015611a7b576020820181803683370190505b5090505b8415610a4457611a90600183612407565b9150611a9d600a866124a0565b611aa89060306123bc565b60f81b818381518110611acb57634e487b7160e01b600052603260045260246000fd5b60200101906001600160f81b031916908160001a905350611aed600a866123d4565b9450611a7f565b60006001600160e01b0319821663152a902d60e11b14806103ff57506301ffc9a760e01b6001600160e01b03198316146103ff565b6001600160a01b038316611b8657611b81816101618054600083815261016260205260408120829055600182018355919091527fafbb1c043347995df017ce3291b765e028ad5f784d2aa00c3f5e073760a4de8b0155565b611ba9565b816001600160a01b0316836001600160a01b031614611ba957611ba98382611c8a565b6001600160a01b038216611bc0576105d481611d2c565b826001600160a01b0316826001600160a01b0316146105d4576105d48282611e0b565b6000611bee8261083d565b9050611bfc8160008461168f565b611c07600083610d6b565b6001600160a01b0381166000908152609a60205260408120805460019290611c30908490612407565b909155505060008281526099602052604080822080546001600160a01b0319169055518391906001600160a01b038416907fddf252ad1be2c89b69c2b068fc378daa952ba7f163c4a11628f55a4df523b3ef908390a45050565b60006001611c978461089d565b611ca19190612407565b60008381526101606020526040902054909150808214611cf7576001600160a01b038416600090815261015f60209081526040808320858452825280832054848452818420819055835261016090915290208190555b506000918252610160602090815260408084208490556001600160a01b03909416835261015f81528383209183525290812055565b61016154600090611d3f90600190612407565b600083815261016260205260408120546101618054939450909284908110611d7757634e487b7160e01b600052603260045260246000fd5b90600052602060002001549050806101618381548110611da757634e487b7160e01b600052603260045260246000fd5b60009182526020808320909101929092558281526101629091526040808220849055858252812055610161805480611def57634e487b7160e01b600052603160045260246000fd5b6001900381819060005260206000200160009055905550505050565b6000611e168361089d565b6001600160a01b03909316600090815261015f6020908152604080832086845282528083208590559382526101609052919091209190915550565b828054611e5d9061244a565b90600052602060002090601f016020900481019282611e7f5760008555611ec5565b82601f10611e9857805160ff1916838001178555611ec5565b82800160010185558215611ec5579182015b82811115611ec5578251825591602001919060010190611eaa565b50611ed1929150611f0b565b5090565b508054611ee19061244a565b6000825580601f10611ef1575050565b601f01602090049060005260206000209081019061079791905b5b80821115611ed15760008155600101611f0c565b600067ffffffffffffffff80841115611f3b57611f3b6124e0565b604051601f8501601f19908116603f01168101908282118183101715611f6357611f636124e0565b81604052809350858152868686011115611f7c57600080fd5b858560208301376000602087830101525050509392505050565b80356001600160a01b0381168114611fad57600080fd5b919050565b80356001600160601b0381168114611fad57600080fd5b600060208284031215611fda578081fd5b6118e082611f96565b60008060408385031215611ff5578081fd5b611ffe83611f96565b915061200c60208401611f96565b90509250929050565b600080600060608486031215612029578081fd5b61203284611f96565b925061204060208501611f96565b9150604084013590509250925092565b60008060008060808587031215612065578081fd5b61206e85611f96565b935061207c60208601611f96565b925060408501359150606085013567ffffffffffffffff81111561209e578182fd5b8501601f810187136120ae578182fd5b6120bd87823560208401611f20565b91505092959194509250565b600080604083850312156120db578182fd5b6120e483611f96565b9150602083013580151581146120f8578182fd5b809150509250929050565b600080600060608486031215612117578283fd5b61212084611f96565b9250602084013567ffffffffffffffff81111561213b578283fd5b8401601f8101861361214b578283fd5b61215a86823560208401611f20565b92505061216960408501611fb2565b90509250925092565b60008060408385031215612184578182fd5b61218d83611f96565b946020939093013593505050565b6000602082840312156121ac578081fd5b81356118e0816124f6565b6000602082840312156121c8578081fd5b81516118e0816124f6565b6000602082840312156121e4578081fd5b5035919050565b600080604083850312156121fd578182fd5b50508035926020909101359150565b60006020828403121561221d578081fd5b6118e082611fb2565b6000815180845261223e81602086016020860161241e565b601f01601f19169290920160200192915050565b6000835161226481846020880161241e565b83519083019061227881836020880161241e565b01949350505050565b6001600160a01b03858116825284166020820152604081018390526080606082018190526000906122b490830184612226565b9695505050505050565b6020815260006118e06020830184612226565b60208082526032908201527f4552433732313a207472616e7366657220746f206e6f6e20455243373231526560408201527131b2b4bb32b91034b6b83632b6b2b73a32b960711b606082015260800190565b6020808252602b908201527f496e697469616c697a61626c653a20636f6e7472616374206973206e6f74206960408201526a6e697469616c697a696e6760a81b606082015260800190565b6020808252602e908201527f4552433732313a2063616c6c6572206973206e6f7420746f6b656e206f776e6560408201526d1c881b9bdc88185c1c1c9bdd995960921b606082015260800190565b600082198211156123cf576123cf6124b4565b500190565b6000826123e3576123e36124ca565b500490565b6000816000190483118215151615612402576124026124b4565b500290565b600082821015612419576124196124b4565b500390565b60005b83811015612439578181015183820152602001612421565b83811115610c4a5750506000910152565b600181811c9082168061245e57607f821691505b6020821081141561247f57634e487b7160e01b600052602260045260246000fd5b50919050565b6000600019821415612499576124996124b4565b5060010190565b6000826124af576124af6124ca565b500690565b634e487b7160e01b600052601160045260246000fd5b634e487b7160e01b600052601260045260246000fd5b634e487b7160e01b600052604160045260246000fd5b6001600160e01b03198116811461079757600080fdfea26469706673582212209a7a6f809522406fe12cdac42ed9465ce50ac539e1dc024d1fce290cd23082b864736f6c63430008040033",
  "linkReferences": {},
  "deployedLinkReferences": {}
}