{
  "_format": "hh-sol-artifact-1",
  "contractName": "BlackList",
  "sourceName": "contracts/BlackList.sol",
  "abi": [
    {
      "anonymous": false,
      "inputs": [
        {
          "indexed": false,
          "internalType": "address",
          "name": "_node",
          "type": "address"
        },
        {
          "indexed": false,
          "internalType": "bool",
          "name": "",
          "type": "bool"
        }
      ],
      "name": "Blacklisted",
      "type": "event"
    },
    {
      "anonymous": false,
      "inputs": [
        {
          "indexed": true,
          "internalType": "address",
          "name": "previousOwner",
          "type": "address"
        },
        {
          "indexed": true,
          "internalType": "address",
          "name": "newOwner",
          "type": "address"
        }
      ],
      "name": "OwnershipTransferred",
      "type": "event"
    },
    {
      "inputs": [
        {
          "internalType": "address",
          "name": "node",
          "type": "address"
        }
      ],
      "name": "AddRemoveBlacklist",
      "outputs": [],
      "stateMutability": "nonpayable",
      "type": "function"
    },
    {
      "inputs": [],
      "name": "owner",
      "outputs": [
        {
          "internalType": "address",
          "name": "",
          "type": "address"
        }
      ],
      "stateMutability": "view",
      "type": "function"
    },
    {
      "inputs": [],
      "name": "renounceOwnership",
      "outputs": [],
      "stateMutability": "nonpayable",
      "type": "function"
    },
    {
      "inputs": [
        {
          "internalType": "address",
          "name": "newOwner",
          "type": "address"
        }
      ],
      "name": "transferOwnership",
      "outputs": [],
      "stateMutability": "nonpayable",
      "type": "function"
    }
  ],
  "bytecode": "0x608060405234801561001057600080fd5b5061001a3361001f565b61006f565b600080546001600160a01b038381166001600160a01b0319831681178455604051919092169283917f8be0079c531659141344cd1fd0a4f28419497f9722a3daafe3b4186f6b6457e09190a35050565b6103148061007e6000396000f3fe608060405234801561001057600080fd5b506004361061004c5760003560e01c80633e20ff8814610051578063715018a6146100665780638da5cb5b1461006e578063f2fde38b1461008d575b600080fd5b61006461005f3660046102b0565b6100a0565b005b610064610177565b600054604080516001600160a01b039092168252519081900360200190f35b61006461009b3660046102b0565b61018b565b6001600160a01b03811660009081526001602052604090205460ff1661011d576001600160a01b038116600081815260016020818152604092839020805460ff19168317905582519384528301527fcf3473b85df1594d47b6958f29a32bea0abff9dd68296f7bf33443646793cfd891015b60405180910390a150565b6001600160a01b0381166000818152600160209081526040808320805460ff191690558051938452908301919091527fcf3473b85df1594d47b6958f29a32bea0abff9dd68296f7bf33443646793cfd89101610112565b50565b61017f610206565b6101896000610260565b565b610193610206565b6001600160a01b0381166101fd5760405162461bcd60e51b815260206004820152602660248201527f4f776e61626c653a206e6577206f776e657220697320746865207a65726f206160448201526564647265737360d01b60648201526084015b60405180910390fd5b61017481610260565b6000546001600160a01b031633146101895760405162461bcd60e51b815260206004820181905260248201527f4f776e61626c653a2063616c6c6572206973206e6f7420746865206f776e657260448201526064016101f4565b600080546001600160a01b038381166001600160a01b0319831681178455604051919092169283917f8be0079c531659141344cd1fd0a4f28419497f9722a3daafe3b4186f6b6457e09190a35050565b6000602082840312156102c1578081fd5b81356001600160a01b03811681146102d7578182fd5b939250505056fea2646970667358221220cb93bf1c4cc06bed32db956a9d093992a2966a29faddc7ccf9b065e2a402a58d64736f6c63430008040033",
  "linkReferences": {},
  "deployedLinkReferences": {}
}